:10087600750E00750F00751009751100751200755B
:10088600130A7B007A0079081208007F0A7E00129C
:04089600089A80DC60
:04089A008E0B8F0C26
:10089E00E4F50DF50EC3E50E950CE50D950B500D1B
:0D08AE001208F6050EE50E70EC050D80E851
:0108BB00221A
:1008F600758901758CFC758A66D28C308DFDC28C2B
:03090600C28D227D
:09093900D290D291C290C2912229
:1008BC00E4FEEF30E703D38001C39290D291C29152
:1008CC00EF25E0FF0EBE08EAD290D2912090FDC237
:0108DC00918A
:0108DD0022F8
:1008DE00E4FFD290FED291EF25E0FF309003430764
:0708EE0001C2910EBE08EEED
:0108F50022E0
:07094200C290D291C2912284
:07094900D290D291C291226D
:10090900D290D291A2909200C291A2004002D32229
:01091900C31A
:01091A0022BA
:07095000C290D291D2902267
:100851008F148D158B161209397FD01208BCE4FF55
:100861001208BCAF141208BCAF151208BCAF1612A7
:0508710008BC02095063
:100800008B0B8A0C890D1209397FD01208BCE4FFCA
:100810001208BC1209501209397FD11208BC120803
:10082000DEAB0BAA0CA90DEF12091B12094212082C
:10083000DEAB0EAA0FA910EF12091B120942120813
:10084000DEAB11AA12A913EF12091B120949020902
:010850005057
:0300000002092DC5
:0C092D00787FE4F6D8FD75812002087682
:10091B00BB010689828A83F0225002F722BBFE01BB
:02092B00F322B5
:00000001FF
