:10080000D280D281D282D283D284D285D286D2873C
:10081000C2807FE87E03120A80D2807FE87E0312C6
:100820000A80C2817FE87E03120A80D2817FE87E3F
:1008300003120A80C2827FE87E03120A80D2827F7E
:10084000E87E03120A80C2837FE87E03120A80D208
:10085000837FE87E03120A80C2847FE87E03120A47
:1008600080D2847FE87E03120A80C2857FE87E03FF
:10087000120A80D2857FE87E03120A80C2867FE852
:100880007E03120A80D2867FE87E03120A80C28726
:100890007FE87E03120A80D2877FE87E03020A8007
:1008A000D290D291D292D293D294D295D296D2971C
:1008B000C2907FE87E03120A80D2907FE87E031206
:1008C0000A80C2917FE87E03120A80D2917FE87E7F
:1008D00003120A80C2927FE87E03120A80D2927FBE
:1008E000E87E03120A80C2937FE87E03120A80D258
:1008F000937FE87E03120A80C2947FE87E03120A87
:1009000080D2947FE87E03120A80C2957FE87E033E
:10091000120A80D2957FE87E03120A80C2967FE891
:100920007E03120A80D2967FE87E03120A80C29765
:100930007FE87E03120A80D2977FE87E03020A8056
:10094000D2A0D2A1D2A2D2A3D2A4D2A5D2A6D2A7FB
:10095000C2A07FE87E03120A80D2A07FE87E031245
:100960000A80C2A17FE87E03120A80D2A17FE87EBE
:1009700003120A80C2A27FE87E03120A80D2A27FFD
:10098000E87E03120A80C2A37FE87E03120A80D2A7
:10099000A37FE87E03120A80C2A47FE87E03120AC6
:1009A00080D2A47FE87E03120A80C2A57FE87E037E
:1009B000120A80D2A57FE87E03120A80C2A67FE8D1
:1009C0007E03120A80D2A67FE87E03120A80C2A7A5
:1009D0007FE87E03120A80D2A77FE87E03020A80A6
:1009E000D2B0D2B1D2B2D2B3D2B4D2B5D2B6D2B7DB
:1009F000C2B07FE87E03120A80D2B07FE87E031285
:100A00000A80C2B17FE87E03120A80D2B17FE87EFD
:100A100003120A80C2B27FE87E03120A80D2B27F3C
:100A2000E87E03120A80C2B37FE87E03120A80D2F6
:100A3000B37FE87E03120A80C2B47FE87E03120A05
:100A400080D2B47FE87E03120A80C2B57FE87E03BD
:100A5000120A80D2B57FE87E03120A80C2B67FE810
:100A60007E03120A80D2B67FE87E03120A80C2B7E4
:100A70007FE87E03120A80D2B77FE87E03020A80F5
:080ACD00120AB512080080FBBB
:0C0AB500120AD5120AD9120ADD020AE169
:040AD500E4F58022A2
:040AD900E4F590228E
:040ADD00E4F5A0227A
:040AE100E4F5B02266
:040A80008E088F0944
:100A8400E4F50AF50BC3E50B9509E50A9508500D45
:0D0A9400120AA2050BE50B70EC050A80E8C4
:010AA1002232
:100AA200758901758CFC758A66D28C308DFDC28C7D
:030AB200C28D22D0
:03000000020AC130
:0C0AC100787FE4F6D8FD75810B020ACDA9
:00000001FF
