:100BEA005541525420496E697469616C697A656429
:100BFA000D0A00594F55525F4D4F42494C455F4EC1
:100C0A00554D4245520048656C6C6F2066726F6D97
:100C1A00204154383953353221202D204C616C6AD9
:0C0C2A006927732070726F6A65637400A4
:100C3600120D727F327E00120CEF120D307F327E63
:100C460000120CEF7BFF7A0B79EA120CCA7525FFAE
:100C560075260C7527107BFF7A0B79FD120C6E7FBB
:080C6600887E13120CEF80E5FB
:100D1100415400415445300041542B434D47463D19
:0F0D2100310041542B434D47533D22257322008F
:100D30007BFF7A0D7911120D4B7BFF7A0D7914121E
:0B0D40000D4B7BFF7A0D7919020D4B63
:100D4B00120CCA7F0D120D8A7F0A120D8A7F647EE8
:040D5B0000020CEF97
:060C6E008B228A23892479
:100C7400755DFF755E0D755F238B608A6189627B8C
:100C8400007A00792812085C7B007A007928120D1A
:0F0C94004BAB25AA26A927120CCA7F1A020D8A7C
:040CEF008E5A8F5B2F
:100CF300E4F55CF55DC3E55D955BE55C955A500DE8
:0D0D0300120D5F055DE55D70EC055C80E89C
:010D100022C0
:100D5F00758901758CFC758A66D28C308DFDC28CBD
:030D6F00C28D2210
:0C0D7200758920758DFD759850D28E2279
:080D8A008F993099FDC29922F6
:080D92003098FDC298AF9922D0
:100CCA008B5A8A5B895CAB5AAA5BA95C120B5C6083
:100CDA0013055CE55C7002055B14F9120B5CFF12EC
:050CEA000D8A80E222EA
:03000000020D7E70
:0C0D7E00787FE4F6D8FD75816D020C361C
:100B5C00BB010689828A83E0225002E722BBFE0297
:090B6C00E32289828A83E49322CA
:10080000E569245DF8E6056922785A300702785DCB
:10081000E475F001120BB4020B5C2000EB7F2ED2CA
:10082000008018EF540F2490D43440D4FF30040BD0
:10083000EF24BFB41A0050032461FFE56A6002157B
:100840006A056DE56D7002056C30070D785AE47528
:10085000F001120BB4EF020BA2020CA37403D20737
:100860008003E4C207F5698B5A8A5B895CE4F56A08
:10087000F56CF56DE56A60077F2012083B80F57521
:100880006BFFC201C200C202C203C205C206C20897
:10089000120809FF700D3007057F0012084CAF6D7C
:1008A000AE6C22B4255FC2D5C204120809FF24D061
:1008B000B40A00501A75F00A786A30D50508B6FFF8
:1008C0000106C6A426F620D5047002D20380D924DE
:1008D000CFB41A00EF5004C2E5D204020A4CD20190
:1008E00080C6D20080C0D20280BCD2D580BAD205E8
:1008F00080B47F2012083B2002077401B56A0040D3
:10090000F1120800FF12083B020874D208D20680D8
:1009100095120800FB120800FA120800F94A4B7001
:1009200006791D7A0B7BFF20022EE56A602A7E0085
:100930008E82758300120B7560060EEE656B70F08B
:10094000C2D5EBC0E0EAC0E0E9C0E0EE120A93D005
:10095000E0F9D0E0FAD0E0FB120B5CFF60AAEBC03C
:10096000E0EAC0E0E9C0E012083BD0E02401F9D0A1
:10097000E03400FAD0E0FBE56B0460DCD56BD98095
:10098000877BFF7A0A798FD202809C791080027966
:1009900008C206C2088008D2D5790A8004790AC242
:1009A000D5E56B047002F56BE4FAFDFEFF1208005A
:1009B000FC7B08200113120800FD7B1030000A1296
:1009C0000800FE120800FF7B20EC3382D592D55040
:1009D00013C3E43000069FFFE49EFEE42001039D64
:1009E000FDE49CFCE4CBF8C201EC700CCFCECDCC86
:1009F000E824F8F870F38017C3EF33FFEE33FEED11
:100A000033FDEC33FCEB33FB994002FB0FD8E9EBF1
:100A1000300105F8D0E0C448B201C0E00AEC4D4E08
:100A20004F78207B0070C2EAB56B0040BCC0E0127A
:100A30000A95D0F0D0E0200104C4C0E0C4B201C0E7
:100A4000F0120824D0F0D5F0EB020874120BC409A0
:100A50001153098B5808E24C08DE42098F4F099761
:0F0A60004409974908F743099D550981460981C3
:100A6F00450981470B3D5008E62D08EA2E090D2B4D
:100A7F0008EE23090B200B262A08A64800000905BB
:100A8F003F3F3F00790AA2D5200314300509B91062
:100A9F00020404B9080104A2D52006025001042063
:100AAF0002689202B56A005034C0E07F203003190B
:100ABF007F30A20272067205500F120AECC202C2F8
:100ACF0006C205C2087F30800F300503E9C0E0126F
:100ADF00083B300503D0E0F9D0E0B56ACC300517FC
:100AEF007F30B9100C12083B7F583004077F788095
:100AFF0003B9080312083B3002057F2D02083B7F24
:100B0F00202008F87F2B2006F322920280CF286E38
:100B1F00756C6C2900D2011208003001F8C20178FF
:100B2F006A30D50108F60208A62D5043495812081D
:100B3F00002403B405004001E4900B389312082CF5
:0D0B4F00743A12082CD203756A0402098B57
:100B7500BB010CE58229F582E5833AF583E0225035
:100B850006E92582F8E622BBFE06E92582F8E2227F
:0D0B9500E58229F582E5833AF583E4932299
:100BA200BB010689828A83F0225002F722BBFE0132
:020BB200F3222C
:100BB400FAE6FB0808E6F925F0F618E6CA3AF62242
:100BC400D083D082F8E4937012740193700DA3A3C0
:100BD40093F8740193F5828883E4737402936860D4
:060BE400EFA3A3A380DFD4
:100CA300EFB40A07740D120CAE740A309811A899A8
:100CB300B8130CC2983098FDA899C298B811F630B1
:070CC30099FDC299F5992289
:00000001FF
