:1008D40048656C6C6F20776F726C64210054686992
:1008E4007320697320612031367832204C434420D0
:1008F40064726976657220666F7220415438395388
:10090400353220636F6E74726F6C6C65720054685C
:09091400616E6B20796F75210002
:1009940012091D7FE87E031209F77BFF7A0879D4D8
:1009A4001209CD7FE87E031209F77BFF7A0879E10B
:1009B4007DC87C001208007FE87E031209F77BFFE4
:0909C4007A0979121209CD80DADA
:0409F7008E258F2694
:1009FB00E4F527F528C3E5289526E5279525500D21
:0D0A0B00120A760528E52870EC052780E822
:010A180022BB
:100A7600758901758CFC758A66D28C308DFDC28CA9
:030A8600C28D22FC
:10091D007F38120A197F057E001209F77F0C120A23
:10092D00197F057E001209F77F01120A197F057ED6
:10093D00001209F77F80120A197F057E001209F750
:0C094D007F06120A197F057E000209F7E0
:100A19008F80C292C293D2947F017E001209F7C2DD
:080A2900947F017E000209F731
:100A31008F80C292C293D2947F017E001209F7C2C5
:080A4100947F017E000209F719
:100A49008F80D292C293D2947F017E001209F7C29D
:080A5900947F017E000209F701
:1009CD008B228A2389247F01120A31AB22AA23A903
:1009DD002412095960130524E5247002052314F926
:0A09ED00120959FF120A4980E222A4
:100A89007F01120A317F80120A197F017E00020953
:010A9900F765
:100A9A007F01120A317FC0120A197F017E00020902
:010AAA00F754
:0A0800008C0B8D0C8B088A09890A05
:10080A00120A618E0D8F0EE4F521D3E50E9410E5E0
:10081A000D648094805009AB08AA09A90A0209CD7F
:10082A00E4F50FF510E50E24F0FFE50D34FFFED3D5
:10083A00E5109FEE6480F8E50F6480985039E50A68
:10084A002510F9E509350F850825F5268927752824
:10085A00007529107B007A0079111208827B007AD0
:10086A000079111209CDAF0CAE0B1209F70510E58C
:07087A001070B2050F80AE03
:010881002254
:03000000020AAB46
:0C0AAB00787FE4F6D8FD75812B020994D9
:10095900BB010689828A83E0225002E722BBFE029C
:09096900E32289828A83E49322CF
:100882008B228A238924E4F52AF52BE5291529AE42
:1008920028700215284E6033AB25AA26A927120913
:1008A20059FFAB22AA23A924052BE52BAC2A7002FF
:1008B200052A14F5828C83EF120972EF60CD740160
:1008C2002527F527E43526F52680C0AB22AA23A9E1
:0208D2002422DE
:100A6100E4FFFE120959600C0FEF70010E09E970E5
:050A7100F20A80EF22F3
:10097200F8BB010DE58229F582E5833AF583E8F0BB
:10098200225006E92582C8F622BBFE05E92582C867
:02099200F2224F
:00000001FF
